{
    "contractName": "HashStorage",
    "abi": [
        {
            "inputs": [
                {
                    "internalType": "string",
                    "name": "_hash",
                    "type": "string"
                }
            ],
            "name": "Store",
            "outputs": [],
            "stateMutability": "nonpayable",
            "type": "function"
        },
        {
            "inputs": [
                {
                    "internalType": "string",
                    "name": "hash",
                    "type": "string"
                }
            ],
            "name": "checkIfHashExists",
            "outputs": [
                {
                    "components": [
                        {
                            "internalType": "uint256",
                            "name": "id",
                            "type": "uint256"
                        },
                        {
                            "internalType": "string",
                            "name": "imageHash",
                            "type": "string"
                        },
                        {
                            "internalType": "uint256",
                            "name": "timeOfSave",
                            "type": "uint256"
                        }
                    ],
                    "internalType": "struct HashStorage.ImageData",
                    "name": "",
                    "type": "tuple"
                }
            ],
            "stateMutability": "view",
            "type": "function"
        },
        {
            "inputs": [
                {
                    "internalType": "string",
                    "name": "hash",
                    "type": "string"
                }
            ],
            "name": "compare",
            "outputs": [
                {
                    "internalType": "bool",
                    "name": "",
                    "type": "bool"
                }
            ],
            "stateMutability": "view",
            "type": "function"
        },
        {
            "inputs": [
                {
                    "internalType": "uint256",
                    "name": "index",
                    "type": "uint256"
                }
            ],
            "name": "getHashAtIndex",
            "outputs": [
                {
                    "components": [
                        {
                            "internalType": "uint256",
                            "name": "id",
                            "type": "uint256"
                        },
                        {
                            "internalType": "string",
                            "name": "imageHash",
                            "type": "string"
                        },
                        {
                            "internalType": "uint256",
                            "name": "timeOfSave",
                            "type": "uint256"
                        }
                    ],
                    "internalType": "struct HashStorage.ImageData",
                    "name": "",
                    "type": "tuple"
                }
            ],
            "stateMutability": "view",
            "type": "function"
        },
        {
            "inputs": [],
            "name": "getHashData",
            "outputs": [
                {
                    "internalType": "uint256",
                    "name": "time",
                    "type": "uint256"
                },
                {
                    "internalType": "string",
                    "name": "hash",
                    "type": "string"
                }
            ],
            "stateMutability": "view",
            "type": "function"
        },
        {
            "inputs": [
                {
                    "internalType": "uint256",
                    "name": "index",
                    "type": "uint256"
                }
            ],
            "name": "getHashDataByIndex",
            "outputs": [
                {
                    "internalType": "string",
                    "name": "hash",
                    "type": "string"
                }
            ],
            "stateMutability": "view",
            "type": "function"
        },
        {
            "inputs": [],
            "name": "getHashStorageLength",
            "outputs": [
                {
                    "internalType": "uint256",
                    "name": "",
                    "type": "uint256"
                }
            ],
            "stateMutability": "view",
            "type": "function"
        },
        {
            "inputs": [],
            "name": "getImageDataLength",
            "outputs": [
                {
                    "internalType": "uint256",
                    "name": "",
                    "type": "uint256"
                }
            ],
            "stateMutability": "view",
            "type": "function"
        },
        {
            "inputs": [],
            "name": "getImageDataList",
            "outputs": [
                {
                    "components": [
                        {
                            "internalType": "uint256",
                            "name": "id",
                            "type": "uint256"
                        },
                        {
                            "internalType": "string",
                            "name": "imageHash",
                            "type": "string"
                        },
                        {
                            "internalType": "uint256",
                            "name": "timeOfSave",
                            "type": "uint256"
                        }
                    ],
                    "internalType": "struct HashStorage.ImageData[]",
                    "name": "",
                    "type": "tuple[]"
                }
            ],
            "stateMutability": "view",
            "type": "function"
        },
        {
            "inputs": [
                {
                    "internalType": "uint256",
                    "name": "",
                    "type": "uint256"
                }
            ],
            "name": "imageDataList",
            "outputs": [
                {
                    "internalType": "uint256",
                    "name": "id",
                    "type": "uint256"
                },
                {
                    "internalType": "string",
                    "name": "imageHash",
                    "type": "string"
                },
                {
                    "internalType": "uint256",
                    "name": "timeOfSave",
                    "type": "uint256"
                }
            ],
            "stateMutability": "view",
            "type": "function"
        }
    ],
    "bytecode": "608060405234801561001057600080fd5b50610db8806100206000396000f3fe608060405234801561001057600080fd5b506004361061009e5760003560e01c8063569c514c11610066578063569c514c1461012b5780636062e7db1461014b578063c16191b31461016d578063f379ac5314610175578063fbd8832a1461018b57600080fd5b8063080c15b7146100a357806323202faa146100cc57806324e0e1ec146100ef5780634f9c5253146101045780635141b4fe14610119575b600080fd5b6100b66100b1366004610936565b61019e565b6040516100c391906109d2565b60405180910390f35b6100df6100da366004610a02565b61029b565b60405190151581526020016100c3565b6100f7610340565b6040516100c39190610ab3565b610117610112366004610a02565b610445565b005b6000545b6040519081526020016100c3565b61013e610139366004610936565b6104a5565b6040516100c39190610b15565b61015e610159366004610936565b610554565b6040516100c393929190610b28565b60015461011d565b61017d610612565b6040516100c3929190610b51565b6100b6610199366004610a02565b6106c9565b6101c260405180606001604052806000815260200160608152602001600081525090565b600082815481106101d5576101d5610b6a565b90600052602060002090600302016040518060600160405290816000820154815260200160018201805461020890610b80565b80601f016020809104026020016040519081016040528092919081815260200182805461023490610b80565b80156102815780601f1061025657610100808354040283529160200191610281565b820191906000526020600020905b81548152906001019060200180831161026457829003601f168201915b505050505081526020016002820154815250509050919050565b6000806102a760015490565b90506000805b82821161033857600182815481106102c7576102c7610b6a565b906000526020600020016040516020016102e19190610bba565b60405160208183030381529060405280519060200120856040516020016103089190610c30565b6040516020818303038152906040528051906020012014905080610338578161033081610c4c565b9250506102ad565b949350505050565b60606000805480602002602001604051908101604052809291908181526020016000905b8282101561043c5783829060005260206000209060030201604051806060016040529081600082015481526020016001820180546103a190610b80565b80601f01602080910402602001604051908101604052809291908181526020018280546103cd90610b80565b801561041a5780601f106103ef5761010080835404028352916020019161041a565b820191906000526020600020905b8154815290600101906020018083116103fd57829003601f168201915b5050505050815260200160028201548152505081526020019060010190610364565b50505050905090565b6002805490600061045583610c4c565b90915550506001805480820182556000919091527fb10e2d527612073b26eecdfd717e6a320cf44b4afac2b0732d9fcbe2b7fa0cf6016104958282610cc2565b506104a26002548261089a565b50565b6060600182815481106104ba576104ba610b6a565b9060005260206000200180546104cf90610b80565b80601f01602080910402602001604051908101604052809291908181526020018280546104fb90610b80565b80156105485780601f1061051d57610100808354040283529160200191610548565b820191906000526020600020905b81548152906001019060200180831161052b57829003601f168201915b50505050509050919050565b6000818154811061056457600080fd5b6000918252602090912060039091020180546001820180549193509061058990610b80565b80601f01602080910402602001604051908101604052809291908181526020018280546105b590610b80565b80156106025780601f106105d757610100808354040283529160200191610602565b820191906000526020600020905b8154815290600101906020018083116105e557829003601f168201915b5050505050908060020154905083565b6000606042600160008154811061062b5761062b610b6a565b9060005260206000200180805461064190610b80565b80601f016020809104026020016040519081016040528092919081815260200182805461066d90610b80565b80156106ba5780601f1061068f576101008083540402835291602001916106ba565b820191906000526020600020905b81548152906001019060200180831161069d57829003601f168201915b50505050509050915091509091565b6106ed60405180606001604052806000815260200160608152602001600081525090565b60005b60005481101561085c576000818154811061070d5761070d610b6a565b906000526020600020906003020160010160405160200161072e9190610bba565b60405160208183030381529060405280519060200120836040516020016107559190610c30565b604051602081830303815290604052805190602001200361084a576000818154811061078357610783610b6a565b9060005260206000209060030201604051806060016040529081600082015481526020016001820180546107b690610b80565b80601f01602080910402602001604051908101604052809291908181526020018280546107e290610b80565b801561082f5780601f106108045761010080835404028352916020019161082f565b820191906000526020600020905b81548152906001019060200180831161081257829003601f168201915b50505050508152602001600282015481525050915050919050565b8061085481610c4c565b9150506106f0565b5060405162461bcd60e51b815260206004820152600e60248201526d12185cda081b9bdd08199bdd5b9960921b604482015260640160405180910390fd5b6040805160608101825283815260208101838152429282019290925260008054600181018255908052815160039091027f290decd9548b62a8d60345a988386fc84ba6bc95484008f6362f93160ef3e56381019182559251919290917f290decd9548b62a8d60345a988386fc84ba6bc95484008f6362f93160ef3e564909101906109259082610cc2565b506040820151816002015550505050565b60006020828403121561094857600080fd5b5035919050565b60005b8381101561096a578181015183820152602001610952565b50506000910152565b6000815180845261098b81602086016020860161094f565b601f01601f19169290920160200192915050565b8051825260006020820151606060208501526109be6060850182610973565b604093840151949093019390935250919050565b6020815260006109e5602083018461099f565b9392505050565b634e487b7160e01b600052604160045260246000fd5b600060208284031215610a1457600080fd5b813567ffffffffffffffff80821115610a2c57600080fd5b818401915084601f830112610a4057600080fd5b813581811115610a5257610a526109ec565b604051601f8201601f19908116603f01168101908382118183101715610a7a57610a7a6109ec565b81604052828152876020848701011115610a9357600080fd5b826020860160208301376000928101602001929092525095945050505050565b6000602080830181845280855180835260408601915060408160051b870101925083870160005b82811015610b0857603f19888603018452610af685835161099f565b94509285019290850190600101610ada565b5092979650505050505050565b6020815260006109e56020830184610973565b838152606060208201526000610b416060830185610973565b9050826040830152949350505050565b8281526040602082015260006103386040830184610973565b634e487b7160e01b600052603260045260246000fd5b600181811c90821680610b9457607f821691505b602082108103610bb457634e487b7160e01b600052602260045260246000fd5b50919050565b6000808354610bc881610b80565b60018281168015610be05760018114610bf557610c24565b60ff1984168752821515830287019450610c24565b8760005260208060002060005b85811015610c1b5781548a820152908401908201610c02565b50505082870194505b50929695505050505050565b60008251610c4281846020870161094f565b9190910192915050565b600060018201610c6c57634e487b7160e01b600052601160045260246000fd5b5060010190565b601f821115610cbd57600081815260208120601f850160051c81016020861015610c9a5750805b601f850160051c820191505b81811015610cb957828155600101610ca6565b5050505b505050565b815167ffffffffffffffff811115610cdc57610cdc6109ec565b610cf081610cea8454610b80565b84610c73565b602080601f831160018114610d255760008415610d0d5750858301515b600019600386901b1c1916600185901b178555610cb9565b600085815260208120601f198616915b82811015610d5457888601518255948401946001909101908401610d35565b5085821015610d725787850151600019600388901b60f8161c191681555b5050505050600190811b0190555056fea2646970667358221220902ac4291308f53d9b3e936ddbc16886a133fa93ca8c28755be310092dc3953764736f6c63430008130033",
    "sourcePath": "d:/ProjetBlockChain/ImageAuthApiV2/ImageAuthApi/HashStorage.sol",
    "compiler": {
        "name": "solc",
        "version": "0.8.19+commit.7dd6d404"
    },
    "functionHashes": {
        "Store(string)": "4f9c5253",
        "checkIfHashExists(string)": "fbd8832a",
        "compare(string)": "23202faa",
        "getHashAtIndex(uint256)": "080c15b7",
        "getHashData()": "f379ac53",
        "getHashDataByIndex(uint256)": "569c514c",
        "getHashStorageLength()": "c16191b3",
        "getImageDataLength()": "5141b4fe",
        "getImageDataList()": "24e0e1ec",
        "imageDataList(uint256)": "6062e7db"
    },
    "gasEstimates": {
        "creation": {
            "codeDepositCost": "702400",
            "executionCost": "734",
            "totalCost": "703134"
        },
        "external": {
            "Store(string)": "infinite",
            "checkIfHashExists(string)": "infinite",
            "compare(string)": "infinite",
            "getHashAtIndex(uint256)": "infinite",
            "getHashData()": "infinite",
            "getHashDataByIndex(uint256)": "infinite",
            "getHashStorageLength()": "2336",
            "getImageDataLength()": "2370",
            "getImageDataList()": "infinite",
            "imageDataList(uint256)": "infinite"
        },
        "internal": {
            "StoreHashData(uint256,string memory)": "infinite"
        }
    }
}